:0400000080312528FE
:100008007E1480314E01161E0A280B2813280C1E58
:100018000E280F28132886317A26803123280B1FB3
:100028001628172823289A1C1A281B282328901CCE
:100038001E281F2823288631A326803123287E10D6
:100048000900803127288631BA268031FB00253007
:10005800840086308500A03086000030870010308C
:1000680086318B268031FA015530840000308500B6
:1000780010308631912680317E1040018131EE2981
:1000880040012D088039B7002D35BE00AC1F4D2822
:100098004E284F283E143E08031953285428642834
:1000A8003E0A031D5828592861280030AD00003049
:1000B800AC000030AB000030AA00AC17AD016C28D2
:1000C8000030AD000030AC000030AB000030AA00BA
:1000D80029088039AE002E08B7062935BF00A81FA9
:1000E8007628772878283F143F0803197C287D282C
:1000F8008D283F0A031D812882288A280030A900FC
:100108000030A8000030A7000030A600A817A901F9
:1001180095280030A9000030A8000030A700003062
:10012800A6002908280427042604031D9C289D28C6
:10013800B6280030AD000030AC000030AB00003015
:10014800AA008030AC047F30AD043708AE002E081A
:10015800AD042D08A9002C08A8002B08A7002A0820
:10016800A600ED293E08031DBA28BB28C428003084
:10017800A9000030A8000030A7000030A600ED2933
:100188003E08AE00AF012F08B1003F082E02B000B4
:10019800031CB10330087F3EB8000030313DB90080
:1001A8002D08B6002C08B5002B08B4002A08B300A7
:1001B8000030AD000030AC000030AB000030AA00C9
:1001C8000030BD000030BC000030BB000030BA0079
:1001D800BF012C293F080319F228F3280D29013003
:1001E800B335B40DB50DB60D890BF4280130AA3519
:1001F800AB0DAC0DAD0D890BFB28BD1F04290529DE
:1002080006292A140130BA35BB0DBC0DBD0D890B6A
:10021800072929083602031D1B2928083502031D52
:100228001B2927083402031D1B2926083302031C37
:100238001E291F2928293D172608B3022708B43B81
:100248002808B53B2908B63B0130AE002E08BF0789
:100258001A303F02031C31293229EE2836083504AA
:1002680034043304031939293A2953293A145329F0
:100278000130AA35AB0DAC0DAD0D890B3D29BD1F65
:100288004629472948292A140130BA35BB0DBC0D27
:10029800BD0D890B4929FF30B807FF30B93DAC1FA8
:1002A800562957293C29BF01BD1F5B295C2978299C
:1002B800FF303A05AE00FF303B05AF00FF303C058C
:1002C800B0007F303D05B100310830042F042E0402
:1002D80003196F2970297329BF01BF0A78292A1CBD
:1002E80076297729782970293F0803197C297D29DF
:1002F800A5290130AA070030AB3D0030AC3D0030E5
:10030800AD3D2D1C88298929A5292A08AE002B086E
:10031800AF002C08B0002D08B1000130B200B13791
:10032800B00CAF0CAE0CB20B93293108AD003008FD
:10033800AC002F08AB002E08AA000130B807003027
:10034800B93D3908803AAE0080302E02031DAE292F
:10035800FF303802031CB129B229BF29FF30400100
:10036800B8000030B9000030AD000030AC000030FB
:10037800AB000030AA0040013908803AAE00803056
:100388002E02031DC929013038020318CC29CD29B2
:10039800D9294001B801B9010030AD000030AC00E6
:1003A8000030AB000030AA00B70140013808BE0099
:1003B8003E1CDF29E029E229AC17E6297F30AE0090
:1003C8002E08AC053E36AD003708AE002E08AD0449
:1003D800AD28080040011610961041012008400180
:1003E800DC00410120084001DD00863135268131DD
:1003F8004001E301D230F2000530F3008631972640
:1004080081314530F2000630F30086319D26813176
:100418008B170B170B304001D0002630CF005D3012
:10042800890B142ACF0B142AD00B142A003201305E
:100438004001E0020030E13B8531A725813186315A
:1004480011268131AA2A5030E0000030E100E30192
:10045800E30A85317B2581318631AF2681313C30F5
:10046800F2000030F30040016108F5006008F40074
:100478008431A724813173084001D2007208D10069
:100488005208AB005108AA00853149258131453011
:10049800F2000630F30086319D268131023040019A
:1004A800E3003C30F2000030F3006108F50060081A
:1004B800F4008431A724813173084001D400720804
:1004C800D3005408A1005308A00060186C2A6E2AB3
:1004D80001306F2A0030A200A301A30A84315C24F2
:1004E80081310030400161023C3003196002031879
:1004F8007E2A7F2A0E2A0330E3000E2A6108A10013
:100508006008A000A201A30184315C24813140016C
:1005180060086104031D912A922A0E2A0430E30020
:100528000E2A8631B72681314001601C9C2A9D2AFB
:10053800A62A0030A000A100A201A30184315C24F6
:1005480081310E2A8631B32681310E2A4001630893
:10055800CF00D0015008003A0319B32A0E2A4F08D9
:10056800003A0319272A013A0319302A033A0319D2
:10057800552A013A0319822A073A0319952A0E2A9D
:10058800803125284001A00020080319CC2ACD2A53
:10059800E12AF51FD02AD12AE12A7209A20073099B
:1005A800A3007409A4007509A500A20A0319A30AE7
:1005B8000319A40A0319A50AE92A7508A5007408ED
:1005C800A4007308A3007208A200750874047304D9
:1005D8007204031DF02AF12AFA2A0030F5000030CF
:1005E800F4000030F3000030F200702B9630A100C8
:1005F800082B0130F6007608A1070130A536A40CB7
:10060800A30CA20C890B022BFE302505031D0D2B14
:100618000E2BFD2A222B0130F6007608A1070130A7
:10062800A2070030A33D0030A43D0030A53D0130B5
:10063800A536A40CA30CA20C890B1C2BFF30250596
:10064800031D272B282B0F2B322B0130A102013041
:10065800A235A30DA40DA50D890B2C2BA41B352B9E
:10066800362B3C2B0230210203183B2B3C2B292B29
:1006780021183F2B402B482BFF30A205FF30A30544
:100688007F30A405FF30A5050310A10C2108F60052
:10069800F701F801F9011830F635F70DF80DF90DE5
:1006A800890B502B7608A2047708A3047808A404C1
:1006B8007908A50420080319622B632B682BF51F02
:1006C800662B672B682BA5172508F5002408F4006E
:1006D8002308F3002208F20008000030400140051A
:1006E800C80000304105C90080304205CA007F308B
:1006F8004305CB004B084A0449044804031D852BD5
:10070800862B8E2B0030C3000030C2000030C100A1
:100718000030C00000304405C80000304505C9005D
:1007280080304605CA007F304705CB004B084A0495
:1007380049044804031DA12BA22BAA2B0030C70093
:100748000030C6000030C5000030C400C31FAD2B08
:10075800AE2BC62B0030C8000030C9000030CA00DC
:100768008030CB004008C8024108C93B4208CA3B58
:100778004308CB3B4B08C3004A08C2004908C100E4
:100788004808C000C71FC92BCA2BE22B0030C8007D
:100798000030C9000030CA008030CB004408C802CD
:1007A8004508C93B4608CA3B4708CB3B4B08C7002E
:1007B8004A08C6004908C5004808C4008030C30676
:1007C8008030C70647084302031DF42B460842023F
:1007D800031DF42B45084102031DF42B4408400275
:1007E8000318F72BF82BFA2B0310FB2B0314080024
:1007F8004001CD010430CE004E08553E86008701E9
:100808000108CC004C08CD074E08553E86008701EC
:100818004E08543E84008501000881000130CE0254
:100828004E08031D182C192C002C00300C1A01300E
:10083800D5005508CC004C08CD073D30C300CC305E
:10084800C200CC30C100CD30C0004030A900A0307B
:10085800A8000030A7000030A6004D08F20080393B
:10086800031DFF30F300F400F50001308231C62289
:10087800833175084001AD007408AC007308AB0003
:100888007208AA0080314420833140012908C7003A
:100898002808C6002708C5002608C400833171232C
:1008A8008331031C582C5A2C01305B2C0030080073
:1008B80040012208031D612C622C652CA601A701AA
:1008C800692C8030A6000030A7000A30F200003002
:1008D800F3002108F5002008F4008431E324843172
:1008E8007208A03E86008701010840012604DC004A
:1008F80023080319802C812C8A2C003021020A300D
:1009080003192002031C892C8A2CA22C0A30F2001D
:100918000030F3002108F5002008F4008431A724F2
:1009280084317208A03E8600870101084001A400B6
:10093800A5012408A8002508A900A42CA801A9013C
:100948002808DD000800F701F8017208730403198C
:10095800AE2CAF2CDE2CF901F90ABB2C0130F23594
:10096800F30D890BB32C0130F6007608F907F31F55
:10097800BE2CBF2CB22C0130F735F80D890BC02CDA
:1009880073087502031DCA2C72087402031CCD2C4F
:10099800CE2CD32C7208F4027308F53B771401307F
:1009A800F336F20C890BD42C0130F902031DDD2C2F
:1009B800DE2CBF2C7808F3007708F20008007208D4
:1009C80073040319E82CE92C122DF701F70AF52C0A
:1009D8000130F235F30D890BED2C0130F600760865
:1009E800F707F31FF82CF92CEC2C73087502031D7C
:1009F800FF2C72087402031C022D032D072D7208A8
:100A0800F4027308F53B0130F336F20C890B082D1C
:100A18000130F702031D112D122DF92C7508F30072
:100A28007408F20008004001960197019801F4301B
:100A380091009201FF309300FF307E01CE00FF301D
:100A4800C300EB30B800E501C4010430B900CF01A0
:100A5800BA01C501D001FF30BB00FF30C600FF302E
:100A6800D100FF30BC00FF30C700FF30D200E801E2
:100A78003F113E113D15BD30F2000630F3008631BE
:100A88009D2685314E01161608004001AE012B083F
:100A9800A1002A08A000A201A30184315C248531A9
:100AA80003304001AD000830AC007730890B5A2D77
:100AB800AC0B5A2DAD0B5A2D4001DC01DD01033082
:100AC8004001AD000830AC007730890B692DAC0BC4
:100AD800692DAD0B692D01304001AC002C08AE0723
:100AE80003302E02031C792D7A2D4B2D0800F301BB
:100AF8000A30F4007408A03E86008701010840010E
:100B0800DC007408A03E860087010108DD0034304F
:100B1800F200F230890B8E2DF20B8E2D0130F2008F
:100B28007208F40710307402031C9B2D9C2D7E2D37
:100B38000130F2007208F3071E307302031CA52D62
:100B4800A62D7C2D08007A080319AB2DAC2DC42DD9
:100B58008331FC238531003A031DB32DB42DD12DEB
:100B680001304001DA070030DB3D00305B021F3006
:100B780003195A02031CC12DC22DD12DFA01D12D02
:100B88008331FC238531003A0319CB2DCC2DD12D8F
:100B9800FA01FA0A4001DA01DB01080008304001D5
:100BA80062020318D82DD92DE02D161496105D0871
:100BB8007B05FF3A9700E62D161096145C087B0516
:100BC800FF3A97007B36FB007B08031DEC2DED2DCB
:100BD800EF2D8030FB000130F0007008E207103084
:100BE8006202031CF82DF92DFA2DE20108000330EA
:100BF800450190008F0191017C308D008C014E01E0
:100C080090109A14BC30F2000630F3008631972613
:100C18008531CF3045018E000800F201400164089B
:100C28000319172E182E1F2E7A0803191C2E1D2E95
:100C38001F2EF201F20A720C031C96110318961566
:100C480008003F3406345B344F3466346D347D34E9
:100C580007347F34673401340234043408341034E0
:100C680020348631832686318531172586318631B1
:100C7800712686318531FB2586318631BB26863142
:100C880008007E013F110030F000F1008631A926EE
:100C9800863158304001E0070230E13DE301E30AC4
:100CA800080040016708680403195B2E5C2E612E5A
:100CB80068088A0067080A0086317E013F1108002B
:100CC80040016508660403196A2E6B2E702E6608AB
:100CD8008A0065080A0086310800623051018D00DB
:100CE8008F01910106309300920108007E013F1D9B
:100CF8007E2E7F2E822E86315526863108004F01A2
:100D080096019701980199019A019B010800FE003C
:100D180012001E00FE0B8C2E00346400800101318D
:100D2800890B922E003473084001E6007208E50032
:100D3800080073084001E8007208E70008004E0147
:100D48009010863164268631080071084001E80059
:100D58007008E70008004001E401E40A08004001C7
:100D6800DC01DD0108004001E401080080340800CE
:040D78000800080067
:020000040001F9
:0A000E00EC3FFF3F9F3FFF3FFF3F25
:00000001FF
