:0400000080312528FE
:100008007E1480314E01161E0A280B2813280C1E58
:100018000E280F28132886314726803123280B1FE6
:100028001628172823289A1C1A281B282328901CCE
:100038001E281F28232886317026803123287E1009
:10004800090080312728863187268031FB0032302D
:10005800840086308500A0308600003087000C3090
:10006800863158268031FA015530840000308500E9
:10007800103086315E2680317E1040018131EE29B4
:1000880040012D088039B7002D35BE00AC1F4D2822
:100098004E284F283E143E08031953285428642834
:1000A8003E0A031D5828592861280030AD00003049
:1000B800AC000030AB000030AA00AC17AD016C28D2
:1000C8000030AD000030AC000030AB000030AA00BA
:1000D80029088039AE002E08B7062935BF00A81FA9
:1000E8007628772878283F143F0803197C287D282C
:1000F8008D283F0A031D812882288A280030A900FC
:100108000030A8000030A7000030A600A817A901F9
:1001180095280030A9000030A8000030A700003062
:10012800A6002908280427042604031D9C289D28C6
:10013800B6280030AD000030AC000030AB00003015
:10014800AA008030AC047F30AD043708AE002E081A
:10015800AD042D08A9002C08A8002B08A7002A0820
:10016800A600ED293E08031DBA28BB28C428003084
:10017800A9000030A8000030A7000030A600ED2933
:100188003E08AE00AF012F08B1003F082E02B000B4
:10019800031CB10330087F3EB8000030313DB90080
:1001A8002D08B6002C08B5002B08B4002A08B300A7
:1001B8000030AD000030AC000030AB000030AA00C9
:1001C8000030BD000030BC000030BB000030BA0079
:1001D800BF012C293F080319F228F3280D29013003
:1001E800B335B40DB50DB60D890BF4280130AA3519
:1001F800AB0DAC0DAD0D890BFB28BD1F04290529DE
:1002080006292A140130BA35BB0DBC0DBD0D890B6A
:10021800072929083602031D1B2928083502031D52
:100228001B2927083402031D1B2926083302031C37
:100238001E291F2928293D172608B3022708B43B81
:100248002808B53B2908B63B0130AE002E08BF0789
:100258001A303F02031C31293229EE2836083504AA
:1002680034043304031939293A2953293A145329F0
:100278000130AA35AB0DAC0DAD0D890B3D29BD1F65
:100288004629472948292A140130BA35BB0DBC0D27
:10029800BD0D890B4929FF30B807FF30B93DAC1FA8
:1002A800562957293C29BF01BD1F5B295C2978299C
:1002B800FF303A05AE00FF303B05AF00FF303C058C
:1002C800B0007F303D05B100310830042F042E0402
:1002D80003196F2970297329BF01BF0A78292A1CBD
:1002E80076297729782970293F0803197C297D29DF
:1002F800A5290130AA070030AB3D0030AC3D0030E5
:10030800AD3D2D1C88298929A5292A08AE002B086E
:10031800AF002C08B0002D08B1000130B200B13791
:10032800B00CAF0CAE0CB20B93293108AD003008FD
:10033800AC002F08AB002E08AA000130B807003027
:10034800B93D3908803AAE0080302E02031DAE292F
:10035800FF303802031CB129B229BF29FF30400100
:10036800B8000030B9000030AD000030AC000030FB
:10037800AB000030AA0040013908803AAE00803056
:100388002E02031DC929013038020318CC29CD29B2
:10039800D9294001B801B9010030AD000030AC00E6
:1003A8000030AB000030AA00B70140013808BE0099
:1003B8003E1CDF29E029E229AC17E6297F30AE0090
:1003C8002E08AC053E36AD003708AE002E08AD0449
:1003D800AD28080040011610961041012008400180
:1003E800DC00410120084001DD008531F62581311E
:1003F8004001E301A330F2000530F30086316426A2
:1004080081310630F2000630F30086316A268131E8
:100418008B170B170B304001D0002630CF005D3012
:10042800890B142ACF0B142AD00B142A003201305E
:100438004001E0020030E13B85317825813185318A
:10044800E2258131A72A5030E0000030E100E301C5
:10045800E30A86317C2681313C30F2000030F3001B
:1004680040016108F5006008F4008431A42481315A
:1004780073084001D2007208D1005208AB0051083D
:10048800AA008531462581310630F2000630F30096
:1004980086316A26813102304001E3003C30F200A7
:1004A8000030F3006108F5006008F4008431A424EA
:1004B800813173084001D4007208D3005408A100A8
:1004C8005308A0006018692A6B2A01306C2A003092
:1004D800A200A301A30A84315924813100304001CC
:1004E80061023C300319600203187B2A7C2A0E2A19
:1004F8000330E3000E2A6108A1006008A000A201F1
:10050800A301843159248131400160086104031D2D
:100518008E2A8F2A0E2A0430E3000E2A863184267A
:1005280081314001601C992A9A2AA32A0030A00030
:10053800A100A201A3018431592481310E2A8631F8
:10054800802681310E2A40016308CF00D00150086F
:10055800003A0319B02A0E2A4F08003A0319272A2D
:10056800013A03192D2A033A0319522A013A0319A9
:100578007F2A073A0319922A0E2A8031252840013A
:10058800A00020080319C92ACA2ADE2AF51FCD2A85
:10059800CE2ADE2A7209A2007309A3007409A400F6
:1005A8007509A500A20A0319A30A0319A40A0319C5
:1005B800A50AE62A7508A5007408A4007308A30014
:1005C8007208A2007508740473047204031DED2AEE
:1005D800EE2AF72A0030F5000030F4000030F3006E
:1005E8000030F2006D2B9630A100052B0130F6008B
:1005F8007608A1070130A536A40CA30CA20C890B20
:10060800FF2AFE302505031D0A2B0B2BFA2A1F2B68
:100618000130F6007608A1070130A2070030A33D9B
:100628000030A43D0030A53D0130A536A40CA30C34
:10063800A20C890B192BFF302505031D242B252B14
:100648000C2B2F2B0130A1020130A235A30DA40DD4
:10065800A50D890B292BA41B322B332B392B0230E8
:1006680021020318382B392B262B21183C2B3D2B24
:10067800452BFF30A205FF30A3057F30A405FF30CE
:10068800A5050310A10C2108F600F701F801F901EE
:100698001830F635F70DF80DF90D890B4D2B760846
:1006A800A2047708A3047808A4047908A5042008FC
:1006B80003195F2B602B652BF51F632B642B652BB0
:1006C800A5172508F5002408F4002308F3002208DC
:1006D800F2000800003040014005C8000030410524
:1006E800C90080304205CA007F304305CB004B0863
:1006F8004A0449044804031D822B832B8B2B0030AA
:10070800C3000030C2000030C1000030C00000301B
:100718004405C80000304505C90080304605CA00B8
:100728007F304705CB004B084A0449044804031DA1
:100738009E2B9F2BA72B0030C7000030C60000302F
:10074800C5000030C400C31FAA2BAB2BC32B00303D
:10075800C8000030C9000030CA008030CB00400813
:10076800C8024108C93B4208CA3B4308CB3B4B0877
:10077800C3004A08C2004908C1004808C000C71F92
:10078800C62BC72BDF2B0030C8000030C900003053
:10079800CA008030CB004408C8024508C93B460857
:1007A800CA3B4708CB3B4B08C7004A08C600490864
:1007B800C5004808C4008030C3068030C706470813
:1007C8004302031DF12B46084202031DF12B450885
:1007D8004102031DF12B440840020318F42BF52BAA
:1007E800F72B0310F82B031408004001CD01043047
:1007F800CE004E08553E860087010108CC004C0803
:10080800CD074E08553E860087014E08543E8400A9
:100818008501000881000130CE024E08031D152C09
:10082800162CFD2B00300C1A0130D5005508CC00D1
:100838004C08CD073D30C300CC30C200CC30C100DD
:10084800CD30C0004030A900A030A8000030A7007B
:100858000030A6004D08F2008039031DFF30F30078
:10086800F400F50001308231C3228331750840015C
:10087800AD007408AC007308AB007208AA008031A0
:100888004420833140012908C7002808C6002708EA
:10089800C5002608C40083316E238331031C552C00
:1008A800572C0130582C0030080040012208031D45
:1008B8005E2C5F2C622CA601A701662C8030A60056
:1008C8000030A7000A30F2000030F3002108F500DC
:1008D8002008F4008431E02484317208A03E8600A8
:1008E8008701010840012604DC00230803197D2C38
:1008F8007E2C872C003021020A3003192002031CA9
:10090800862C872C9F2C0A30F2000030F300210837
:10091800F5002008F4008431A42484317208A03E34
:100928008600870101084001A400A5012408A80049
:100938002508A900A12CA801A9012808DD000800A4
:10094800F701F801720873040319AB2CAC2CDB2CEB
:10095800F901F90AB82C0130F235F30D890BB02CE6
:100968000130F6007608F907F31FBB2CBC2CAF2C1E
:100978000130F735F80D890BBD2C73087502031D7E
:10098800C72C72087402031CCA2CCB2CD02C7208FA
:10099800F4027308F53B77140130F336F20C890B37
:1009A800D12C0130F902031DDA2CDB2CBC2C780881
:1009B800F3007708F2000800720873040319E52CA5
:1009C800E62C0F2DF701F70AF22C0130F235F30D62
:1009D800890BEA2C0130F6007608F707F31FF52C8F
:1009E800F62CE92C73087502031DFC2C720874029E
:1009F800031CFF2C002D042D7208F4027308F53B2C
:100A08000130F336F20C890B052D0130F702031D76
:100A18000E2D0F2DF62C7508F3007408F20008004F
:100A28004001960197019801F43091009201FF303E
:100A38009300FF307E01CE00FF30C300EB30B800DA
:100A4800E501C4010430B900CF01BA01C501D001E4
:100A5800FF30BB00FF30C600FF30D100FF30BC00C4
:100A6800FF30C700FF30D200E8013F113E113D15AD
:100A78008A30F2000630F30086316A2685314E014D
:100A8800161608004001AE012B08A1002A08A00094
:100A9800A201A30184315924853103304001AD00FE
:100AA8000830AC007730890B572DAC0B572DAD0BA8
:100AB800572D4001DC01DD0103304001AD00083055
:100AC800AC007730890B662DAC0B662DAD0B662D0F
:100AD80001304001AC002C08AE0703302E02031C85
:100AE800762D772D482D08007A0803197C2D7D2D49
:100AF800952D8331F9238531003A031D842D852DE9
:100B0800A22D01304001DA070030DB3D00305B02E6
:100B18001F3003195A02031C922D932DA22DFA019E
:100B2800A22D8331F9238531003A03199C2D9D2D7F
:100B3800A22DFA01FA0A4001DA01DB0108000830A7
:100B4800400162020318A92DAA2DB12D1614961082
:100B58005D087B05FF3A9700B72D161096145C08C0
:100B68007B05FF3A97007B36FB007B08031DBD2DF4
:100B7800BE2DC02D8030FB000130F0007008E20768
:100B880010306202031CC92DCA2DCB2DE2010800CA
:100B98000330450190008F0191017C308D008C015C
:100BA8004E0190109A148930F2000630F300863115
:100BB80064268531CF3045018E000800F2014001DE
:100BC80064080319E82DE92DF02D7A080319ED2D95
:100BD800EE2DF02DF201F20A720C031C9611031887
:100BE80096150800863150268531853114258531C2
:100BF80086313E2685318531CC258531863188265A
:100C0800853108007E013F110030F000F100863187
:100C18007626863158304001E0070230E13DE30195
:100C2800E30A080040016708680403191C2E1D2EFA
:100C3800222E68088A0067080A0086317E013F1163
:100C4800080040016508660403192B2E2C2E312E4E
:100C580066088A0065080A00863108003F340634B1
:100C68005B344F3466346D347D3407347F346734F5
:100C78004034FF34623051018D008F0191010630FC
:100C88009300920108007E013F1D4B2E4C2E4F2EE3
:100C980086311626863108004F0196019701980182
:100CA80099019A019B010800FE0012001E00FE0B2C
:100CB800592E0034640080010131890B5F2E003405
:100CC80073084001E6007208E50008007308400157
:100CD800E8007208E70008004E01901086312526CA
:100CE8008631080071084001E8007008E700080034
:100CF8004001E401E40A08004001DC01DD010800CC
:0E0D08004001E40108008034080008000800E3
:020000040001F9
:0A000E00EC3FFF3F9F3FFF3FFF3F25
:00000001FF
